:100000000C942E000C944B000C944B000C944B0061
:100010000C944B000C944B000C944B000C944B0034
:100020000C944B000C944B000C944B000C944B0024
:100030000C944B000C944B000C944B000C944B0014
:100040000C944B000C944B000C944B000C944B0004
:100050000C944B000C944B000C944B0011241FBECD
:10006000CFEFD4E0DEBFCDBF11E0A0E0B1E0E6E22B
:10007000FBE002C005900D92AC31B107D9F723E047
:10008000ACE1B1E001C01D92A134B207E1F70E94DA
:1000900016040C9491050C940000E1E6F0E080E871
:1000A0008083108287EB8093E50087E08093E600F1
:1000B0008FE08093E70080EC8093E4000895CF9375
:1000C000DF93CDB7DEB7C051D2400FB6F894DEBF94
:1000D0000FBECDBF6630710508F0FCC290ED980FE1
:1000E0009A3018F490E0C09702C08AE090E0611561
:1000F000710509F07BC04CEE50E0FA01208136E139
:10010000E4E0F1E0DE01A550BE4F01900D923A957A
:10011000E1F7880F991FEBEFF1E0EC0FFD1FE80FFF
:10012000F91F30813F70207F232BFA01208361EF7C
:1001300070E0FB01408126E1E4E0F1E0DE01AB513B
:10014000BE4F01900D922A95E1F7E5EEF1E0EC0F3C
:10015000FD1FE80FF91F20813181207F332735955E
:100160002795359527953595279535952795407F82
:10017000242BFB01208366EF70E0FB01208136E138
:10018000E4E0F1E0DE01A153BE4F01900D923A95FB
:10019000E1F7EFECF1E0EC0FFD1FE80FF91F4081F4
:1001A000518144275F70207F252BFB0120834BEF7B
:1001B00050E0FA01208136E1E4E0F1E0DE01A754ED
:1001C000BE4F01900D923A95E1F7E9EBF1E0EC0FAB
:1001D000FD1FE80FF91F918195959595959595953A
:1001E000822F807F892BFA01808374C26130710570
:1001F00009F07DC06CEE70E0FB01408126E1E4E097
:10020000F1E0DE01AD55BE4F01900D922A95E1F768
:10021000880F991FE3EAF1E0EC0FFD1FE80FF91FCB
:100220002081318122953295307F3227207F3227FD
:100230004F70242BFB01208341EF50E0FA01208115
:1002400036E1E4E0F1E0DE01A357BE4F01900D92EC
:100250003A95E1F7EDE8F1E0EC0FFD1FE80FF91F2B
:100260003081307F2F70232BFA01208366EF70E0FE
:10027000FB01408126E1E4E0F1E0DE01A958BE4F38
:1002800001900D922A95E1F7E7E7F1E0EC0FFD1FF1
:10029000E80FF91F2081318122273F70359527957E
:1002A0003595279535952795359527954F70242BAE
:1002B000FB0120834BEF50E0FA01208136E1E4E0BE
:1002C000F1E0DE01AF59BE4F01900D923A95E1F792
:1002D000E1E6F1E0EC0FFD1FE80FF91F808191814D
:1002E0008827907F2F70292BFA012083F3C1623079
:1002F000710509F07BC04DEE50E0FA01208136E136
:10030000E4E0F1E0DE01A55BBE4F01900D923A956D
:10031000E1F7880F991FEBE4F1E0EC0FFD1FE80F08
:10032000F91F30813F70207F232BFA01208362EF79
:1003300070E0FB01408126E1E4E0F1E0DE01AB5C2E
:10034000BE4F01900D922A95E1F7E5E3F1E0EC0F45
:10035000FD1FE80FF91F20813181207F332735955C
:100360002795359527953595279535952795407F80
:10037000242BFB01208367EF70E0FB01208136E135
:10038000E4E0F1E0DE01A15EBE4F01900D923A95EE
:10039000E1F7EFE1F1E0EC0FFD1FE80FF91F4081FD
:1003A000518144275F70207F252BFB0120834CEF78
:1003B00050E0FA01208136E1E4E0F1E0DE01A75FE0
:1003C000BE4F01900D923A95E1F7E9E0F1E0EC0FB4
:1003D000FD1FE80FF91F9181959595959595959538
:1003E000822F807F892BFA01808374C1633071056D
:1003F00009F07DC06DEE70E0FB01408126E1E4E094
:10040000F1E0DE01AD50BF4F01900D922A95E1F76A
:10041000880F991FE3EFF0E0EC0FFD1FE80FF91FC5
:100420002081318122953295307F3227207F3227FB
:100430004F70242BFB01208342EF50E0FA01208112
:1004400036E1E4E0F1E0DE01A352BF4F01900D92EE
:100450003A95E1F7EDEDF0E0EC0FFD1FE80FF91F25
:100460003081307F2F70232BFA01208367EF70E0FB
:10047000FB01408126E1E4E0F1E0DE01A953BF4F3A
:1004800001900D922A95E1F7E7ECF0E0EC0FFD1FEB
:10049000E80FF91F2081318122273F70359527957C
:1004A0003595279535952795359527954F70242BAC
:1004B000FB0120834CEF50E0FA01208136E1E4E0BB
:1004C000F1E0DE01AF54BF4F01900D923A95E1F794
:1004D000E1EBF0E0EC0FFD1FE80FF91F8081918147
:1004E0008827907F2F70292BFA012083F3C0643076
:1004F000710509F07BC04EEE50E0FA01208136E133
:10050000E4E0F1E0DE01A556BF4F01900D923A956F
:10051000E1F7880F991FEBE9F0E0EC0FFD1FE80F02
:10052000F91F30813F70207F232BFA01208363EF76
:1005300070E0FB01408126E1E4E0F1E0DE01AB5731
:10054000BF4F01900D922A95E1F7E5E8F0E0EC0F3E
:10055000FD1FE80FF91F20813181207F332735955A
:100560002795359527953595279535952795407F7E
:10057000242BFB01208368EF70E0FB01208136E132
:10058000E4E0F1E0DE01A159BF4F01900D923A95F0
:10059000E1F7EFE6F0E0EC0FFD1FE80FF91F4081F7
:1005A000518144275F70207F252BFB0120834DEF75
:1005B00050E0FA01208136E1E4E0F1E0DE01A75AE3
:1005C000BF4F01900D923A95E1F7E9E5F0E0EC0FAD
:1005D000FD1FE80FF91F9181959595959595959536
:1005E000822F807F892BFA01808374C0653071056A
:1005F00009F070C06EEE70E0FB01408126E1E4E09E
:10060000F1E0DE01AD5BBF4F01900D922A95E1F75D
:10061000880F991FE3E4F0E0EC0FFD1FE80FF91FCE
:100620002081318122953295307F3227207F3227F9
:100630004F70242BFB01208343EF50E0FA0120810F
:1006400036E1E4E0F1E0DE019D9601900D923A95ED
:10065000E1F761E070E06C0F7D1F860F971FFC01D2
:1006600034A5307F2F70232BFA01208368EF70E0D0
:10067000FB01408126E1E4E0F1E0DE0157960190C4
:100680000D922A95E1F7FC012689378922273F70D0
:100690003595279535952795359527953595279542
:1006A0004F70242BFB0120834DEF50E0FA01208195
:1006B00036E1E4E0F1E0DE01119601900D923A9509
:1006C000E1F7FC01808191818827907F2F70292B91
:1006D000FA012083C05FDD4F0FB6F894DEBF0FBE76
:1006E000CDBFDF91CF910895CF92DF92EF92FF922D
:1006F000CF93DF936B017C0181E0C816D104E10444
:10070000F104A1F183E0C816D104E104F10484F1FD
:10071000D701C60181709927AA27B078BB2354F46A
:100720000197A109B1098E6F9F6FAF6FBF6F0196DF
:10073000A11DB11D892B8A2B8B2BE1F0C2E0D0E0EB
:1007400008C0C701B6010E940F05672B682B692BF3
:1007500099F021969E010D2E000C440B550B2C1583
:100760003D054E055F056CF381E007C080E005C0E4
:1007700081E003C080E001C080E0DF91CF91FF9075
:10078000EF90DF90CF9008958F929F92AF92BF929B
:10079000CF92DF92EF92FF92CF93DF934B015C01F8
:1007A000EA0124E630E040E050E00E940F050F2E01
:1007B000FAE0CF2ED12CE12CF12CF02DA7019601DF
:1007C0000E940F05BE0180E3820F0E945F00219608
:1007D000C501B401A70196010E940F05862FBE0135
:1007E000805D0E945F00DF91CF91FF90EF90DF90DE
:1007F000CF90BF90AF909F908F900895EC01C12C47
:10080000D12C7601C394C701B6010E9474038823DA
:1008100039F0AE01C701B6010E94C4030E94F4047E
:100820008FEFC81AD80AE80AF80AEDCF0E944D00E7
:100830008AE191E0C82F00E21EE462E070E08C2FB4
:100840000E945F0001501109CF5F01151105A9F742
:1008500060E070E08EEF93E00E94690483E090E036
:100860000E94FE03DC0115961C921E921497DB0178
:10087000ED91FC911197309721F48D939C930895FD
:10088000F9012481358121153105D1F795838483C0
:100890000895CF93DF9300D0CDB7DEB79A838983D5
:1008A000809100019091010106960E945005892BCC
:1008B00059F489819A81909301018093000161E04C
:1008C00070E006960E9470050F900F90DF91CF9117
:1008D0000895CF93DF9300D0CDB7DEB7F894209181
:1008E0001C0130911D01232B19F52AEF31E03093C3
:1008F00092012093910127E632E03093FF0120938B
:10090000FE0124ED32E030936C0220936B021092D2
:10091000D9021092D8022F9AEF9AECE6F0E02081EB
:100920002068208321E030E030931D0120931C01DA
:1009300020910201309103013A832983232BA9F0EE
:10094000E981FA814481558150930301409302016A
:10095000918380837383628315821482CF0106960C
:100960000E945005019749F501C0FFCF7894A091EE
:100970000001B0910101ED91FC91119712968D91BA
:100980009C9113970995F89462E071E080910001C1
:10099000909101010E94320480911E0190911F01EB
:1009A000009751F0FC012481358130931F01209381
:1009B0001E010E94490401C0FFCFE981FA813696E9
:1009C00089819A8187599F4F918B808B938B828BE2
:1009D0006EE171E089819A810E94320478940F90CF
:1009E0000F90DF91CF910895F8946EE171E08091BE
:1009F0000001909101010E94320480911E019091AA
:100A00001F01009759F0FC012481358130931F01AB
:100A100020931E010E94490478940895FFCF052E6B
:100A200097FB1EF400940E94260557FD07D00E94F4
:100A30002E0507FC03D04EF40C94260550954095E6
:100A4000309521953F4F4F4F5F4F0895909580957A
:100A5000709561957F4F8F4F9F4F0895A1E21A2E99
:100A6000AA1BBB1BFD010DC0AA1FBB1FEE1FFF1F52
:100A7000A217B307E407F50720F0A21BB30BE40BA2
:100A8000F50B661F771F881F991F1A9469F76095E9
:100A90007095809590959B01AC01BD01CF010895A3
:100AA000DC012D923D924D925D926D927D928D92E0
:100AB0009D92AD92BD92CD92DD92ED92FD920D93FD
:100AC0001D93CD93DD93FF91EF918DB78D938EB7ED
:100AD0008D938FB78D93ED93FD9388279927099474
:100AE000DC01CB0181309105811D2D903D904D9011
:100AF0005D906D907D908D909D90AD90BD90CD90CE
:100B0000DD90ED90FD900D911D91CD91DD91ED91D8
:100B1000FD910D90F894FEBF0FBEEDBFED91FD91DC
:060B20000994F894FFCFD8
:100B260020018D0151158020111E111B500B411BF8
:0C0B3600411F1101511F510B0000300045
:00000001FF
