S01400006430303033655F6C616262322E7372656362
S11300000C942E000C944B000C944B000C94C905DA
S11300100C944B000C944B000C944B000C944B0030
S11300200C944B000C944B000C944B000C944B0020
S11300300C944B000C944B000C944B000C944B0010
S11300400C944B000C944B000C944B000C944B0000
S11300500C944B000C944B000C944B0011241FBEC9
S1130060CFEFD4E0DEBFCDBF11E0A0E0B1E0E4EE1D
S1130070FCE002C005900D92AA31B107D9F723E044
S1130080AAE1B1E001C01D92AF33B207E1F70E94CB
S1130090E2040C9470060C940000E1E6F0E080E8C1
S11300A08083108287EB8093E50087E08093E600ED
S11300B08FE08093E70080EC8093E4000895CF9371
S11300C0DF93CDB7DEB7C251D2400FB6F894DEBF8E
S11300D00FBECDBFCF5EDD4F19821882C151D24011
S11300E06630710508F0C2C390ED980F9A3048F05D
S11300F08AE090E0CF5EDD4F99838883C151D2407E
S113010008C090E0C097CF5EDD4F99838883C151CA
S1130110D2406115710509F098C02CEE30E0F90168
S1130120808196E1E4E0F1E0DE01A550BE4F01904C
S11301300D929A95E1F7CF5EDD4FE881F981C151C7
S1130140D240EE0FFF1F4BEF51E04C0F5D1FE40F49
S1130150F51F90819F70807F892BF901808341EF87
S113016050E0FA01208186E1E4E0F1E0DE01AB51E8
S1130170BE4F01900D928A95E1F7CF5EDD4FE88185
S1130180F981C151D240EE0FFF1F85EE91E08C0F33
S11301909D1FE80FF91F80819181807F9927959594
S11301A08795959587959595879595958795207FBE
S11301B0822BFA01808346EF50E0FA01808196E1B8
S11301C0E4E0F1E0DE01A153BE4F01900D929A9557
S11301D0E1F7CF5EDD4FE881F981C151D240EE0FE6
S11301E0FF1F2FEC31E02C0F3D1FE20FF31F208186
S11301F0318122273F70807F832BFA0180832BEF8C
S113020030E0F901808196E1E4E0F1E0DE01A754F9
S1130210BE4F01900D929A95E1F7CF5EDD4FE881D4
S1130220F981C151D240EE0FFF1F49EB51E04C0F51
S11302305D1FE40FF51F918195959595959595957D
S1130240807F892BF901808311C36130710509F026
S11302509BC04CEE50E0FA01208186E1E4E0F1E03D
S1130260DE01AD55BE4F01900D928A95E1F7CF5E48
S1130270DD4FE881F981C151D240EE0FFF1F83EABF
S113028091E08C0F9D1FE80FF91F80819181829569
S11302909295907F9827807F98272F70822BFA0160
S11302A0808321EF30E0F901808196E1E4E0F1E020
S11302B0DE01A357BE4F01900D929A95E1F7CF5EF0
S11302C0DD4FE881F981C151D240EE0FFF1F4DE8A7
S11302D051E04C0F5D1FE40FF51F9081907F8F70EC
S11302E0892BF901808346EF50E0FA01208186E1F1
S11302F0E4E0F1E0DE01A958BE4F01900D928A9529
S1130300E1F7CF5EDD4FE881F981C151D240EE0FB4
S1130310FF1F87E791E08C0F9D1FE80FF91F808175
S1130320918188279F709595879595958795959543
S11303308795959587952F70822BFA0180834BEFD3
S113034050E0FA01808196E1E4E0F1E0DE01AF598A
S1130350BE4F01900D929A95E1F7CF5EDD4FE88193
S1130360F981C151D240EE0FFF1F21E631E02C0F7D
S11303703D1FE20FF31F208131812227307F8F70D0
S1130380832BFA01808372C26230710509F098C030
S11303902DEE30E0F901808196E1E4E0F1E0DE0148
S11303A0A55BBE4F01900D929A95E1F7CF5EDD4FAC
S11303B0E881F981C151D240EE0FFF1F4BE451E0B7
S11303C04C0F5D1FE40FF51F90819F70807F892B78
S11303D0F901808342EF50E0FA01208186E1E4E0F4
S11303E0F1E0DE01AB5CBE4F01900D928A95E1F71E
S11303F0CF5EDD4FE881F981C151D240EE0FFF1F7E
S113040085E391E08C0F9D1FE80FF91F8081918196
S1130410807F992795958795959587959595879547
S113042095958795207F822BFA01808347EF50E0D2
S1130430FA01808196E1E4E0F1E0DE01A15EBE4FC5
S113044001900D929A95E1F7CF5EDD4FE881F98135
S1130450C151D240EE0FFF1F2FE131E02C0F3D1FA1
S1130460E20FF31F2081318122273F70807F832B8D
S1130470FA0180832CEF30E0F901808196E1E4E019
S1130480F1E0DE01A75FBE4F01900D929A95E1F76E
S1130490CF5EDD4FE881F981C151D240EE0FFF1FDD
S11304A049E051E04C0F5D1FE40FF51F91819595D4
S11304B0959595959595807F892BF9018083D6C173
S11304C06330710509F09BC04DEE50E0FA012081C4
S11304D086E1E4E0F1E0DE01AD50BF4F01900D9202
S11304E08A95E1F7CF5EDD4FE881F981C151D240B1
S11304F0EE0FFF1F83EF90E08C0F9D1FE80FF91F95
S11305008081918182959295907F9827807F98270A
S11305102F70822BFA01808322EF30E0F901808171
S113052096E1E4E0F1E0DE01A352BF4F01900D92A9
S11305309A95E1F7CF5EDD4FE881F981C151D24050
S1130540EE0FFF1F4DED50E04C0F5D1FE40FF51F44
S11305509081907F8F70892BF901808347EF50E061
S1130560FA01208186E1E4E0F1E0DE01A953BF4F06
S113057001900D928A95E1F7CF5EDD4FE881F98114
S1130580C151D240EE0FFF1F87EC90E08C0F9D1FEE
S1130590E80FF91F8081918188279F709595879531
S11305A09595879595958795959587952F70822B29
S11305B0FA0180834CEF50E0FA01808196E1E4E097
S11305C0F1E0DE01AF54BF4F01900D929A95E1F72F
S11305D0CF5EDD4FE881F981C151D240EE0FFF1F9C
S11305E021EB30E02C0F3D1FE20FF31F20813181FE
S11305F02227307F8F70832BFA01808337C16430C8
S1130600710509F098C02EEE30E0F901808196E181
S1130610E4E0F1E0DE01A556BF4F01900D929A95FA
S1130620E1F7CF5EDD4FE881F981C151D240EE0F91
S1130630FF1F4BE950E04C0F5D1FE40FF51F908145
S11306409F70807F892BF901808343EF50E0FA018A
S1130650208186E1E4E0F1E0DE01AB57BF4F019079
S11306600D928A95E1F7CF5EDD4FE881F981C151A2
S1130670D240EE0FFF1F85E890E08C0F9D1FE80F1E
S1130680F91F80819181807F99279595879595950C
S113069087959595879595958795207F822BFA0167
S11306A0808348EF50E0FA01808196E1E4E0F1E0D4
S11306B0DE01A159BF4F01900D929A95E1F7CF5EEB
S11306C0DD4FE881F981C151D240EE0FFF1F2FE6C3
S11306D030E02C0F3D1FE20FF31F208131812227D0
S11306E03F70807F832BFA0180832DEF30E0F90186
S11306F0808196E1E4E0F1E0DE01A75ABF4F01906A
S11307000D929A95E1F7CF5EDD4FE881F981C151F1
S1130710D240EE0FFF1F49E550E04C0F5D1FE40F80
S1130720F51F91819595959595959595807F892B44
S1130730F90180839BC06530710509F097C04EEEC6
S113074050E0FA01208186E1E4E0F1E0DE01AD5BF6
S1130750BF4F01900D928A95E1F7CF5EDD4FE8819E
S1130760F981C151D240EE0FFF1F83E490E08C0F5A
S11307709D1FE80FF91F8081918182959295907F4A
S11307809827807F98272F70822BFA01808323EF8C
S113079030E0F901808196E1E4E0F1E0DE019D962C
S11307A001900D929A95E1F7CF5EDD4FE881F981D2
S11307B0C151D240EE0FFF1F41E050E04C0F5D1FCE
S11307C0E40FF51F94A5907F8F70892BF901808326
S11307D048EF50E0FA01208186E1E4E0F1E0DE0137
S11307E0579601900D928A95E1F7CF5EDD4FE8812F
S11307F0F981C151D240EE0FFF1F81E090E08C0FD0
S11308009D1FE80FF91F8689978988279F70959502
S113081087959595879595958795959587952F7047
S1130820822BFA0180834DEF50E0FA01808196E13A
S1130830E4E0F1E0DE01119601900D929A95E1F762
S1130840CF5EDD4FE881F981C151D240EE0FFF1F29
S113085021E030E02C0F3D1FE20FF31F2081318196
S11308602227307F8F70832BFA018083CE5EDD4F89
S11308700FB6F894DEBF0FBECDBFDF91CF910895C0
S1130880CF92DF92EF92FF92CF93DF936B017C01C3
S113089081E0C816D104E104F104A1F183E0C81693
S11308A0D104E104F10484F1D701C60181709927D0
S11308B0AA27B078BB2354F40197A109B1098E6F1C
S11308C09F6FAF6FBF6F0196A11DB11D892B8A2B3E
S11308D08B2BE1F0C2E0D0E008C0C701B6010E9452
S11308E0EE05672B682B692B99F021969E010D2E3E
S11308F0000C440B550B2C153D054E055F056CF3A0
S113090081E007C080E005C081E003C080E001C051
S113091080E0DF91CF91FF90EF90DF90CF9008952A
S11309208F929F92AF92BF92CF92DF92EF92FF92FB
S1130930CF93DF934B015C01EA0124E630E040E011
S113094050E00E94EE050F2EFAE0CF2ED12CE12CC0
S1130950F12CF02DA70196010E94EE05BE0180E363
S1130960820F0E945F002196C501B401A701960180
S11309700E94EE05862FBE01805D0E945F00DF911C
S1130980CF91FF90EF90DF90CF90BF90AF909F906A
S11309908F900895EC01C12CD12C7601C394C7012A
S11309A0B6010E944004882329F0AE01C701B601B4
S11309B00E9490040E94B0058FEFC81AD80AE80A72
S11309C0F80AEDCF0E944D0060E070E08AEC94E0FC
S11309D00E94250583E090E00E94CA04DC0115967C
S11309E01C921E921497DB01ED91FC9111973097A4
S11309F021F48D939C930895F90124813581211567
S1130A003105D1F7958384830895CF93DF9300D084
S1130A10CDB7DEB79A83898380910001909101015B
S1130A2006960E942F06892B59F489819A81909306
S1130A3001018093000161E070E006960E944F0678
S1130A400F900F90DF91CF910895CF93DF9300D053
S1130A50CDB7DEB7F89420911A0130911B01232BF6
S1130A6019F528EF31E03093900120938F0125E6AA
S1130A7032E03093FD012093FC0122ED32E030930B
S1130A806A02209369021092D7021092D6022F9A1A
S1130A90EF9AECE6F0E020812068208321E030E04A
S1130AA030931B0120931A0120910201309103011C
S1130AB03A832983232BA9F0E981FA814481558162
S1130AC05093030140930201918380837383628373
S1130AD015821482CF0106960E942F06019749F5CC
S1130AE001C0FFCF7894A0910001B0910101ED9174
S1130AF0FC91119712968D919C9113970995F894F6
S1130B0062E071E080910001909101010E94EE0485
S1130B1080911C0190911D01009751F0FC012481EA
S1130B20358130931D0120931C010E94050501C0ED
S1130B30FFCFE981FA81369689819A8187599F4F3F
S1130B40918B808B938B828B6CE171E089819A818C
S1130B500E94EE0478940F900F90DF91CF91089546
S1130B606CE171E080910001909101010E94EE041A
S1130B7080911C0190911D01009751F0FC0124818A
S1130B80358130931D0120931C010E9405050895B1
S1130B90FFCF1F920F920FB60F9211242F933F9302
S1130BA04F935F936F937F938F939F93AF93BF9371
S1130BB0EF93FF932F9B0E94B005FF91EF91BF919C
S1130BC0AF919F918F917F916F915F914F913F91E1
S1130BD02F910F900FBE0F901F901895052E97FB25
S1130BE01EF400940E94050657FD07D00E940D06CE
S1130BF007FC03D04EF40C940506509540953095AF
S1130C0021953F4F4F4F5F4F089590958095709574
S1130C1061957F4F8F4F9F4F0895A1E21A2EAA1B13
S1130C20BB1BFD010DC0AA1FBB1FEE1FFF1FA21798
S1130C30B307E407F50720F0A21BB30BE40BF50B95
S1130C40661F771F881F991F1A9469F7609570951E
S1130C50809590959B01AC01BD01CF010895DC0105
S1130C602D923D924D925D926D927D928D929D92C8
S1130C70AD92BD92CD92DD92ED92FD920D931D93B6
S1130C80CD93DD93FF91EF918DB78D938EB78D93B7
S1130C908FB78D93ED93FD93882799270994DC01F1
S1130CA0CB0181309105811D2D903D904D905D903B
S1130CB06D907D908D909D90AD90BD90CD90DD9088
S1130CC0ED90FD900D911D91CD91DD91ED91FD91F2
S1130CD00D90F894FEBF0FBEEDBFED91FD91099408
S1070CE0F894FFCFB2
S1130CE41E018B0151158020111E111B500B411B39
S10D0CF4411F1101511F510B0000B4
S9030000FC
