:100000000C942E000C944B000C944B000C94170491
:100010000C944B000C944B000C944B000C943C043F
:100020000C944B000C944B000C944B000C944B0024
:100030000C944B000C944B000C944B000C944B0014
:100040000C944B000C944B000C944B000C944B0004
:100050000C944B000C944B000C944B0011241FBECD
:10006000CFEFD4E0DEBFCDBF11E0A0E0B1E0E8EC1F
:10007000F9E002C005900D92AA31B107D9F723E04B
:10008000AAE1B1E001C01D92A134B207E1F70E94DC
:1000900011030C94E2040C940000E1E6F0E080E827
:1000A0008083108287EB8093E50087E08093E600F1
:1000B0008FE08093E70080EC8093E4000895CF9375
:1000C000DF9300D0CDB7DEB71A8219826630710592
:1000D00008F0E6C190ED980F9A3028F08AE090E0A1
:1000E0009A83898304C090E0C0979A8389836115BD
:1000F000710509F049C0ACEEB0E08C91E981FA815C
:10010000EE0FFF1FE050FF4F90819F70807F892B83
:100110008C93A1EFB0E02C91E981FA81EE0FFF1FE3
:10012000E050FF4F80819181807F99279595879539
:10013000959587959595879595958795922F907F1D
:10014000892B8C93A6EFB0E08C91E981FA81EE0FB8
:10015000FF1FE050FF4F2081318122273F70807FB9
:10016000832B8C93ABEFB0E08C91E981FA81EE0F99
:10017000FF1FE050FF4F9181959595959595959529
:10018000807F892B8C938CC16130710509F04DC043
:10019000ACEEB0E02C91E981FA81EE0FFF1FE05048
:1001A000FF4F8081918182959295907F9827807FE3
:1001B0009827922F9F70892B8C93A1EFB0E08C91A0
:1001C000E981FA81EE0FFF1FE050FF4F9081907F91
:1001D0008F70892B8C93A6EFB0E02C91E981FA8186
:1001E000EE0FFF1FE050FF4F8081918188279F70A5
:1001F00095958795959587959595879595958795E7
:10020000922F9F70892B8C93ABEFB0E08C91E9819A
:10021000FA81EE0FFF1FE050FF4F2081318122272E
:10022000307F8F70832B8C933BC16230710509F056
:1002300049C0ADEEB0E08C91E981FA81EE0FFF1F6D
:10024000E050FF4F90819F70807F892B8C93A2EFAD
:10025000B0E02C91E981FA81EE0FFF1FE050FF4FD3
:1002600080819181807F9927959587959595879530
:100270009595879595958795922F907F892B8C934F
:10028000A7EFB0E08C91E981FA81EE0FFF1FE050FB
:10029000FF4F2081318122273F70807F832B8C93F9
:1002A000ACEFB0E08C91E981FA81EE0FFF1FE050D6
:1002B000FF4F91819595959595959595807F892B83
:1002C0008C93EEC06330710509F04DC0ADEEB0E027
:1002D0002C91E981FA81EE0FFF1FE050FF4F8081E2
:1002E000918182959295907F9827807F9827922F71
:1002F0009F70892B8C93A2EFB0E08C91E981FA81F9
:10030000EE0FFF1FE050FF4F9081907F8F70892B81
:100310008C93A7EFB0E02C91E981FA81EE0FFF1FDB
:10032000E050FF4F8081918188279F709595879538
:10033000959587959595879595958795922F9F701B
:10034000892B8C93ACEFB0E08C91E981FA81EE0FB0
:10035000FF1FE050FF4F208131812227307F8F70B7
:10036000832B8C939DC06430710509F049C0AEEEBB
:10037000B0E08C91E981FA81EE0FFF1FE050FF4F52
:1003800090819F70807F892B8C93A3EFB0E02C919C
:10039000E981FA81EE0FFF1FE050FF4F80819181CC
:1003A000807F9927959587959595879595958795BC
:1003B00095958795922F907F892B8C93A8EFB0E02D
:1003C0008C91E981FA81EE0FFF1FE050FF4F2081F1
:1003D000318122273F70807F832B8C93ADEFB0E07B
:1003E0008C91E981FA81EE0FFF1FE050FF4F918160
:1003F0009595959595959595807F892B8C9350C073
:100400006530710509F04CC0AEEEB0E02C91E98189
:10041000FA81EE0FFF1FE050FF4F8081918182959E
:100420009295907F9827807F9827922F9F70892B95
:100430008C93A3EFB0E08C91E981FA81EE0FFF1F5E
:10044000E050FF4F9081907F8F70892B8C93A8EFA5
:10045000B0E02C91E981FA81EE0FFF1FE050FF4FD1
:100460008081918188279F7095958795959587952F
:100470009595879595958795922F9F70892B8C934D
:10048000ADEFB0E08C91E981FA81EE0FFF1FE050F3
:10049000FF4F208131812227307F8F70832B8C93F7
:1004A0000F900F90DF91CF910895CF92DF92EF924E
:1004B000FF92CF93DF936B017C0181E0C816D104DA
:1004C000E104F104A1F183E0C816D104E104F104D0
:1004D00084F1D701C60181709927AA27B078BB2380
:1004E00054F40197A109B1098E6F9F6FAF6FBF6F71
:1004F0000196A11DB11D892B8A2B8B2BE1F0C2E047
:10050000D0E008C0C701B6010E946004672B682BC9
:10051000692B99F021969E010D2E000C440B550B72
:100520002C153D054E055F056CF381E007C080E0AA
:1005300005C081E003C080E001C080E0DF91CF9181
:10054000FF90EF90DF90CF900895CF92DF92EF92DF
:10055000FF920F931F93CF93DF9300D0CDB7DEB7F9
:100560006B017C018A0150931F0140931E0124E618
:1005700030E040E050E00E9460042AE030E040E0DB
:1005800050E00E946004B80180E3820F0E945F0087
:100590001A82198289819A81883E934054F4898114
:1005A0009A8101969A83898389819A81883E9340B2
:1005B000B4F300911E0110911F010F5F1F4F1093A4
:1005C0001F0100931E01C701B6012AE030E040E0A0
:1005D00050E00E946004862FB801805D0E945F0099
:1005E0000F900F90DF91CF911F910F91FF90EF909F
:1005F000DF90CF900895EC01C12CD12C7601C394EB
:10060000C701B6010E945502882329F0AE01C70137
:10061000B6010E94A5028FEFC81AD80AE80AF80AA4
:10062000EFCF0E944D0060E070E08BEF92E00E94FF
:10063000540383E090E00E94FB02DC0115961C92BB
:100640001E921497DB01ED91FC911197309721F4E4
:100650008D939C930895F9012481358121153105ED
:10066000D1F7958384830895CF93DF9300D0CDB7DE
:10067000DEB79A83898380911601909117010696BF
:100680000E94A104892B59F489819A8190931701C2
:100690008093160161E070E006960E94C1040F90FD
:1006A0000F90DF91CF910895CF93DF9300D0CDB716
:1006B000DEB7F89420911A0130911B01232B09F029
:1006C0003FC02AEF31E0309392012093910127E659
:1006D00032E03093FF012093FE0124ED32E03093AD
:1006E0006C0220936B021092D9021092D8022F9ABA
:1006F000EF9AECE6F0E0208120682083E1E6F0E06C
:10070000208121602083E1E8F0E0208128602083BF
:10071000208125602083EFE6F0E0208122602083A5
:100720002BE830E0309389002093880010928500F8
:100730001092840021E030E030931B0120931A01D5
:1007400020911801309119013A832983232BA9F0B4
:10075000E981FA8144815581509319014093180130
:10076000918380837383628315821482CF010696FE
:100770000E94A104019749F501C0FFCF7894A09190
:100780001601B0911701ED91FC91119712968D9180
:100790009C9113970995F89468E171E08091160196
:1007A000909117010E941D0380911C0190911D01E1
:1007B000009751F0FC012481358130931D01209375
:1007C0001C010E94340301C0FFCFE981FA813696F3
:1007D00089819A8187599F4F918B808B938B828BD4
:1007E0006CE171E089819A810E941D0378940F90D9
:1007F0000F90DF91CF910895F8946CE171E08091B2
:100800001601909117010E941D0380911C01909187
:100810001D01009759F0FC012481358130931D01A1
:1008200020931C010E94340378940895FFCF1F92F7
:100830000F920FB60F9211242F933F934F935F9314
:100840006F937F938F939F93AF93BF93EF93FF9398
:100850001F9B0E94FC03FF91EF91BF91AF919F916D
:100860008F917F916F915F914F913F912F910F9059
:100870000FBE0F901F9018951F920F920FB60F92F8
:1008800011242F933F934F935F936F937F938F9395
:100890009F93AF93BF93EF93FF930E94FC03FF914D
:1008A000EF91BF91AF919F918F917F916F915F91E8
:1008B0004F913F912F910F900FBE0F901F90189561
:1008C000052E97FB1EF400940E94770457FD07D075
:1008D0000E947F0407FC03D04EF40C9477045095DB
:1008E0004095309521953F4F4F4F5F4F089590951C
:1008F0008095709561957F4F8F4F9F4F0895A1E22E
:100900001A2EAA1BBB1BFD010DC0AA1FBB1FEE1F89
:10091000FF1FA217B307E407F50720F0A21BB30BD4
:10092000E40BF50B661F771F881F991F1A9469F750
:1009300060957095809590959B01AC01BD01CF01AC
:100940000895DC012D923D924D925D926D927D92C3
:100950008D929D92AD92BD92CD92DD92ED92FD92DF
:100960000D931D93CD93DD93FF91EF918DB78D93F3
:100970008EB78D938FB78D93ED93FD93882799272D
:100980000994DC01CB0181309105811D2D903D90B2
:100990004D905D906D907D908D909D90AD90BD90AF
:1009A000CD90DD90ED90FD900D911D91CD91DD915B
:1009B000ED91FD910D90F894FEBF0FBEEDBFED914E
:0809C000FD910994F894FFCFAA
:1009C80051158020111E111B500B411B411F110195
:0A09D800511F510B000020018D019A
:00000001FF
